:1000000045C0000060C000005EC000005CC0000091
:100010005AC0000058C0000056C0000054C0000084
:1000200052C0000050C000004EC000004CC0000094
:100030004AC000006DC0000046C0000044C000007F
:1000400042C0000040C000003EC000003CC00000B4
:100050003AC0000038C0000036C0000034C00000C4
:1000600032C0000030C000002EC000002CC00000D4
:100070002AC0000028C0000026C0000024C00000E4
:1000800022C0000020C000001EC0000011241FBEBE
:10009000CFEFD0E4DEBFCDBF11E0A0E0B1E0EAE1F8
:1000A000FAE000E00BBF02C007900D92A03FB1073D
:1000B000D9F722E0A0EFB1E001C01D92A830B2074D
:1000C000E1F74DD4A8C49CCF8BE0809381008DE7ED
:1000D00090E0909389008093880082E080936F0085
:1000E000109285001092840080916E0190916F01B2
:1000F000A0917001B09171018093F6019093F70186
:10010000A093F801B093F9018FB780688FBF08956D
:100110001F920F920FB60F9211248F939F93AF935C
:10012000BF938091F6019091F701A091F801B091F1
:10013000F9010197A109B1098093F6019093F701A4
:10014000A093F801B093F901892B8A2B8B2B99F49A
:1001500081E08093FA0180916E0190916F01A091EE
:100160007001B09171018093F6019093F701A09313
:10017000F801B093F901BF91AF919F918F910F90CA
:100180000FBE0F901F9018958FEE88B90000309B1E
:1001900029C0319B29C0329B29C0339B29C08FEDD8
:1001A00088B90000309B26C0319B26C0329B26C0F8
:1001B000339B26C08FEB88B90000309B23C0319B56
:1001C00023C0329B23C0339B23C08FE788B9000034
:1001D000309B20C0319B20C0329B20C0339920C06F
:1001E00084E4089581E3089584E3089587E30895FE
:1001F0008AE2089582E3089585E3089588E30895E7
:1002000080E3089583E3089586E3089589E30895DC
:1002100083E2089581E4089582E4089583E40895D3
:1002200080E00895813081F0E1ECF0E08081886128
:100230008083E2ECF0E080818660808383E38093BA
:10024000C4001092C5000895E9ECF0E08081886157
:100250008083EAECF0E080818660808383E3809392
:10026000CC001092CD000895613041F0E0ECF0E058
:10027000908195FFFDCF8093C6000895E8ECF0E0F3
:10028000908195FFFDCF8093CE00089520E030E06F
:1002900090E015B865B1AC01022E02C055954795A6
:1002A0000A94E2F74170462B45B9299A2F5F3F4FD8
:1002B0002830310571F72A9A089520E030E090E067
:1002C00012B8E2B1BC01022E02C0759567950A947E
:1002D000E2F761707727AB0142955295507F542722
:1002E000407F54274E2B42B9159A2F5F3F4F28303D
:1002F000310531F7169A089520E030E090E015B806
:10030000E5B1BC01022E02C0759567950A94E2F72B
:1003100061707727AB0142955295507F5427407FFB
:1003200054274E2B45B92D9A2F5F3F4F283031056A
:1003300031F72E9A089580E480937C0087E88093BB
:100340007A000895ECE7F0E090818770987F982B11
:100350009083EAE7F0E0808180648083808186FD7D
:10036000FDCFEAE7F0E080818061808380917800B2
:1003700090917900089580E0E5DF9093FE018093ED
:10038000FD0181E0DFDF9093070280930602209158
:10039000FD013091FE01293542E034073CF081E057
:1003A00090E09093F5018093F4010895243F31404B
:1003B0003CF482E090E09093F5018093F40108957D
:1003C000893522E092073CF084E090E09093F501BB
:1003D0008093F4010895843F91403CF488E090E0DC
:1003E0009093F5018093F40108951092F501109215
:1003F000F401089580910302813041F018F08230B9
:10040000A1F13EC081E08093030244C0BDDE813390
:1004100029F4109201021092FC0123C0B5DE823350
:1004200031F41092010281E08093FC011AC0ACDE2D
:10043000833331F41092010282E08093FC0111C0F9
:10044000A3DE843331F41092010283E08093FC0137
:1004500008C09ADE853329F41092010284E080936B
:10046000FC0182E080930302C1C0809102028830C7
:1004700018F0109203020BC081E0809303020AC0BF
:10048000813041F020F0823009F0BCC0AFC0109242
:10049000020208956091FC01862F90E0FC01E85F64
:1004A000FE4F208130E04091F2015091F30124177A
:1004B000350709F07EC0FC01EE0FFF1FEE0FFF1F96
:1004C000EE0FFF1F2E0F3F1FF901EA5CFE4FDC010C
:1004D000AE5FBE4F20818C9128136BC0611116C096
:1004E0001092FF0180E0E0910001F0910101E80F1E
:1004F000F11D60E08081B8DE8091FF018F5F809305
:10050000FF018C3480F360E08AE0AEDE8091FC0174
:10051000813031F460E082E3A7DE60E08AE0A4DEAF
:100520008091FC018230B1F41092FF0180E0E091F3
:100530000001F0910101E80FF11D60E0808194DE7F
:100540008091FF018F5F8093FF018C3480F360E026
:100550008AE08ADE8091FC018330B1F41092FF01C1
:1005600080E0E0910001F0910101E80FF11D60E0F1
:1005700080817ADE8091FF018F5F8093FF018C3450
:1005800080F360E08AE070DE8091FC01843051F4F9
:1005900081E08093010260E085E366DE60E08AE04E
:1005A00063DE07C081E0809301021092F301109294
:1005B000F2018091020290E0FC01E25AFE4F20819C
:1005C0002093FB012091FC0138E0239F800D911DB9
:1005D0001124FC01EA5CFE4F208120930502FC01FE
:1005E000E25FFE4F80818093040208958FEF809335
:1005F0000502809304021092FB01809102028F5F3A
:1006000080930202089580910002823009F4F6C0BE
:1006100030F4882359F0813009F4B4C095C1833097
:1006200009F429C1843009F45AC18EC18091F401C2
:100630009091F501019731F52091FC0130E0809116
:10064000F2019091F301220F331F220F331F220F6B
:10065000331FF901E25FFE4FE80FF91F418150E0BF
:10066000820F931FFC01EA5CFE4F808190E0809531
:10067000909584239523892B09F470C181E08093A0
:10068000000208958091F4019091F501029731F5EF
:100690002091FC0130E08091F2019091F301220F52
:1006A000331F220F331F220F331FFC01E20FF31FF2
:1006B000E35FFE4F408150E0820F931FFC01EA5C34
:1006C000FE4F808190E08095909584239523892B1F
:1006D00009F444C182E08093000208958091F401FE
:1006E0009091F501049721F52091FC018091F20190
:1006F0009091F30138E0239F800D911D1124FC019E
:10070000EA5CFE4F408150E0440F551F4160409528
:100710005095FC01E25FFE4F208130E0CA01822348
:100720009323892B09F41AC183E080930002089572
:100730008091F4019091F501089709F00FC1209183
:10074000FC018091F2019091F30138E0239F800D2C
:10075000911D1124FC01EA5CFE4F408146954068E2
:1007600050E040955095FC01E25FFE4F208130E063
:10077000CA0182239323892B09F4F0C084E080937B
:10078000000208958091F2019091F3018730910564
:10079000F8F49C012F5F3F4F4091FC0150E0440F63
:1007A000551F440F551F440F551F840F951FFC0103
:1007B000EA5CFE4F8081420F531FDA01AA5CBE4FF4
:1007C0008C938FEF80833093F3012093F20113C059
:1007D0001092F3011092F201E091FC01F0E0EE0FB3
:1007E000FF1FEE0FFF1FEE0FFF1FEA5CFE4F87811A
:1007F00080838FEF87831092000208958091F20129
:100800009091F3010097F9F09C012150310940913A
:10081000FC0150E0440F551F440F551F440F551F56
:10082000840F951FFC01EA5CFE4F8081420F531F2D
:10083000DA01AA5CBE4F8C938FEF80833093F30173
:100840002093F20115C087E090E09093F30180932C
:10085000F201E091FC01F0E0EE0FFF1FEE0FFF1F31
:10086000EE0FFF1FEA5CFE4F808187838FEF80834E
:100870001092000208958091F0019091F10187306B
:100880009105B8F42091FC01E091F201F091F3019F
:1008900038E0239FE00DF11D1124EA5CFE4F20811A
:1008A000220F2160208301969093F1018093F00143
:1008B00013C08091FC01E091F201F091F30198E006
:1008C000899FE00DF11D1124EA5CFE4F8EEF8083BD
:1008D0001092F1011092F00110920002089580919F
:1008E000F0019091F1010097B9F02091FC01E091A5
:1008F000F201F091F30138E0239FE00DF11D112486
:10090000EA5CFE4F20812695205820830197909322
:10091000F1018093F00115C08091FC01E091F2019A
:10092000F091F30198E0899FE00DF11D1124EA5C3C
:10093000FE4F8FE7808387E090E09093F1018093F2
:10094000F0011092000208951092F3011092F2014A
:100950001092F1011092F0011092000208958CEFB4
:1009600081B983E082B980EF87B98FE088B98FEFD2
:100970008AB91BB884B915B880E054DC81E090E0F6
:10098000A0E0B0E080936E0190936F01A09370019E
:10099000B09371018093F6019093F701A093F80151
:1009A000B093F90191DBC7DCC2E7D1E001EA11E0C5
:1009B00060E0899159DCC017D107D1F760E08AE087
:1009C00053DCD9DC17DDC0E0D0E018E0F12C00E00A
:1009D00003C019DECF2DD02F80910102813011F498
:1009E00012B903C0811101C012B88091FB014EDC25
:1009F0008091040281DC809105025FDC8091FA0124
:100A00008823E1F31092FA012196B5DCF3DCC639B4
:0A0A1000D10511F7DECFF894FFCFF7
:100A1A00A2017FFEFEFBFEFE07000306000182BF65
:100A2A00A1AFA8EF01FF29E989F981FF10F080CF72
:100A3A005C75CD5951DF0FBF0FFFE0EBF4FFE9BB47
:100A4A0082FA0AFA82FF7FFFFFFFFFFFFFFFDFFF45
:100A5A00FFFFFFFFFFFF7FFFFFFFFFFFFFFFFEFF1D
:100A6A00FFFFFFFFFFFFF7FFFFFFFFFFFFFF8040D2
:100A7A00201008040201000000000000000001002C
:100A8A00000057656C636F6D6520746F204D617A45
:100A9A00652052756E6E6572212043686F6F7365AB
:100AAA002061206D617020616E6420626567696EE5
:100ABA002E00476F6F64206A6F622120596F75207C
:100ACA0066696E697368656420706C6179696E67BE
:100ADA002074686973206D61702C2063686F6F736E
:100AEA006520616E6F74686572206D617020746F25
:100AFA00206B65657020706C6179696E672E0000E5
:00000001FF
